{
  "contractName": "Users",
  "abi": [
    {
      "inputs": [],
      "payable": false,
      "stateMutability": "nonpayable",
      "type": "constructor"
    },
    {
      "anonymous": false,
      "inputs": [
        {
          "indexed": false,
          "internalType": "string",
          "name": "message",
          "type": "string"
        }
      ],
      "name": "bankDetCreated",
      "type": "event"
    },
    {
      "anonymous": false,
      "inputs": [
        {
          "indexed": false,
          "internalType": "string",
          "name": "accountname",
          "type": "string"
        },
        {
          "indexed": false,
          "internalType": "string",
          "name": "accountnumber",
          "type": "string"
        },
        {
          "indexed": false,
          "internalType": "string",
          "name": "bankname",
          "type": "string"
        }
      ],
      "name": "bankDetails",
      "type": "event"
    },
    {
      "constant": true,
      "inputs": [
        {
          "internalType": "string",
          "name": "",
          "type": "string"
        }
      ],
      "name": "Accounts",
      "outputs": [
        {
          "internalType": "string",
          "name": "bankname",
          "type": "string"
        },
        {
          "internalType": "string",
          "name": "accountnum",
          "type": "string"
        },
        {
          "internalType": "string",
          "name": "accountname",
          "type": "string"
        }
      ],
      "payable": false,
      "stateMutability": "view",
      "type": "function"
    },
    {
      "constant": true,
      "inputs": [
        {
          "internalType": "string",
          "name": "",
          "type": "string"
        }
      ],
      "name": "userrecord",
      "outputs": [
        {
          "internalType": "string",
          "name": "username",
          "type": "string"
        },
        {
          "internalType": "string",
          "name": "password",
          "type": "string"
        },
        {
          "internalType": "string",
          "name": "uid",
          "type": "string"
        }
      ],
      "payable": false,
      "stateMutability": "view",
      "type": "function"
    },
    {
      "constant": false,
      "inputs": [
        {
          "internalType": "string",
          "name": "username",
          "type": "string"
        },
        {
          "internalType": "string",
          "name": "password",
          "type": "string"
        },
        {
          "internalType": "string",
          "name": "unqid",
          "type": "string"
        }
      ],
      "name": "createAccount",
      "outputs": [
        {
          "internalType": "string",
          "name": "",
          "type": "string"
        }
      ],
      "payable": false,
      "stateMutability": "nonpayable",
      "type": "function"
    },
    {
      "constant": true,
      "inputs": [
        {
          "internalType": "string",
          "name": "username",
          "type": "string"
        },
        {
          "internalType": "string",
          "name": "password",
          "type": "string"
        }
      ],
      "name": "Fetch",
      "outputs": [
        {
          "internalType": "string",
          "name": "",
          "type": "string"
        }
      ],
      "payable": false,
      "stateMutability": "view",
      "type": "function"
    },
    {
      "constant": false,
      "inputs": [
        {
          "internalType": "string",
          "name": "bankname",
          "type": "string"
        },
        {
          "internalType": "string",
          "name": "accountnum",
          "type": "string"
        },
        {
          "internalType": "string",
          "name": "accountname",
          "type": "string"
        },
        {
          "internalType": "string",
          "name": "userid",
          "type": "string"
        }
      ],
      "name": "createBankAccount",
      "outputs": [],
      "payable": false,
      "stateMutability": "nonpayable",
      "type": "function"
    },
    {
      "constant": true,
      "inputs": [
        {
          "internalType": "string",
          "name": "userid",
          "type": "string"
        }
      ],
      "name": "fetchBankDetail",
      "outputs": [
        {
          "internalType": "string",
          "name": "",
          "type": "string"
        },
        {
          "internalType": "string",
          "name": "",
          "type": "string"
        },
        {
          "internalType": "string",
          "name": "",
          "type": "string"
        }
      ],
      "payable": false,
      "stateMutability": "view",
      "type": "function"
    }
  ],
  "bytecode": "0x608060405234801561001057600080fd5b50611b30806100206000396000f3fe608060405234801561001057600080fd5b50600436106100625760003560e01c8063959c3f7714610067578063b9b2564614610273578063bc53c0c41461047f578063be1c368d146106e1578063cc6c5c8814610961578063f167067214610b2c575b600080fd5b6101206004803603602081101561007d57600080fd5b810190808035906020019064010000000081111561009a57600080fd5b8201836020820111156100ac57600080fd5b803590602001918460018302840111640100000000831117156100ce57600080fd5b91908080601f016020809104026020016040519081016040528093929190818152602001838380828437600081840152601f19601f820116905080830192505050505050509192919290505050610d38565b60405180806020018060200180602001848103845287818151815260200191508051906020019080838360005b8381101561016857808201518184015260208101905061014d565b50505050905090810190601f1680156101955780820380516001836020036101000a031916815260200191505b50848103835286818151815260200191508051906020019080838360005b838110156101ce5780820151818401526020810190506101b3565b50505050905090810190601f1680156101fb5780820380516001836020036101000a031916815260200191505b50848103825285818151815260200191508051906020019080838360005b83811015610234578082015181840152602081019050610219565b50505050905090810190601f1680156102615780820380516001836020036101000a031916815260200191505b50965050505050505060405180910390f35b61032c6004803603602081101561028957600080fd5b81019080803590602001906401000000008111156102a657600080fd5b8201836020820111156102b857600080fd5b803590602001918460018302840111640100000000831117156102da57600080fd5b91908080601f016020809104026020016040519081016040528093929190818152602001838380828437600081840152601f19601f820116905080830192505050505050509192919290505050610f40565b60405180806020018060200180602001848103845287818151815260200191508051906020019080838360005b83811015610374578082015181840152602081019050610359565b50505050905090810190601f1680156103a15780820380516001836020036101000a031916815260200191505b50848103835286818151815260200191508051906020019080838360005b838110156103da5780820151818401526020810190506103bf565b50505050905090810190601f1680156104075780820380516001836020036101000a031916815260200191505b50848103825285818151815260200191508051906020019080838360005b83811015610440578082015181840152602081019050610425565b50505050905090810190601f16801561046d5780820380516001836020036101000a031916815260200191505b50965050505050505060405180910390f35b6106666004803603606081101561049557600080fd5b81019080803590602001906401000000008111156104b257600080fd5b8201836020820111156104c457600080fd5b803590602001918460018302840111640100000000831117156104e657600080fd5b91908080601f016020809104026020016040519081016040528093929190818152602001838380828437600081840152601f19601f8201169050808301925050505050505091929192908035906020019064010000000081111561054957600080fd5b82018360208201111561055b57600080fd5b8035906020019184600183028401116401000000008311171561057d57600080fd5b91908080601f016020809104026020016040519081016040528093929190818152602001838380828437600081840152601f19601f820116905080830192505050505050509192919290803590602001906401000000008111156105e057600080fd5b8201836020820111156105f257600080fd5b8035906020019184600183028401116401000000008311171561061457600080fd5b91908080601f016020809104026020016040519081016040528093929190818152602001838380828437600081840152601f19601f82011690508083019250505050505050919291929050505061126a565b6040518080602001828103825283818151815260200191508051906020019080838360005b838110156106a657808201518184015260208101905061068b565b50505050905090810190601f1680156106d35780820380516001836020036101000a031916815260200191505b509250505060405180910390f35b61095f600480360360808110156106f757600080fd5b810190808035906020019064010000000081111561071457600080fd5b82018360208201111561072657600080fd5b8035906020019184600183028401116401000000008311171561074857600080fd5b91908080601f016020809104026020016040519081016040528093929190818152602001838380828437600081840152601f19601f820116905080830192505050505050509192919290803590602001906401000000008111156107ab57600080fd5b8201836020820111156107bd57600080fd5b803590602001918460018302840111640100000000831117156107df57600080fd5b91908080601f016020809104026020016040519081016040528093929190818152602001838380828437600081840152601f19601f8201169050808301925050505050505091929192908035906020019064010000000081111561084257600080fd5b82018360208201111561085457600080fd5b8035906020019184600183028401116401000000008311171561087657600080fd5b91908080601f016020809104026020016040519081016040528093929190818152602001838380828437600081840152601f19601f820116905080830192505050505050509192919290803590602001906401000000008111156108d957600080fd5b8201836020820111156108eb57600080fd5b8035906020019184600183028401116401000000008311171561090d57600080fd5b91908080601f016020809104026020016040519081016040528093929190818152602001838380828437600081840152601f19601f820116905080830192505050505050509192919290505050611458565b005b610ab16004803603604081101561097757600080fd5b810190808035906020019064010000000081111561099457600080fd5b8201836020820111156109a657600080fd5b803590602001918460018302840111640100000000831117156109c857600080fd5b91908080601f016020809104026020016040519081016040528093929190818152602001838380828437600081840152601f19601f82011690508083019250505050505050919291929080359060200190640100000000811115610a2b57600080fd5b820183602082011115610a3d57600080fd5b80359060200191846001830284011164010000000083111715610a5f57600080fd5b91908080601f016020809104026020016040519081016040528093929190818152602001838380828437600081840152601f19601f8201169050808301925050505050505091929192905050506115a4565b6040518080602001828103825283818151815260200191508051906020019080838360005b83811015610af1578082015181840152602081019050610ad6565b50505050905090810190601f168015610b1e5780820380516001836020036101000a031916815260200191505b509250505060405180910390f35b610be560048036036020811015610b4257600080fd5b8101908080359060200190640100000000811115610b5f57600080fd5b820183602082011115610b7157600080fd5b80359060200191846001830284011164010000000083111715610b9357600080fd5b91908080601f016020809104026020016040519081016040528093929190818152602001838380828437600081840152601f19601f82011690508083019250505050505050919291929050505061184e565b60405180806020018060200180602001848103845287818151815260200191508051906020019080838360005b83811015610c2d578082015181840152602081019050610c12565b50505050905090810190601f168015610c5a5780820380516001836020036101000a031916815260200191505b50848103835286818151815260200191508051906020019080838360005b83811015610c93578082015181840152602081019050610c78565b50505050905090810190601f168015610cc05780820380516001836020036101000a031916815260200191505b50848103825285818151815260200191508051906020019080838360005b83811015610cf9578082015181840152602081019050610cde565b50505050905090810190601f168015610d265780820380516001836020036101000a031916815260200191505b50965050505050505060405180910390f35b600081805160208101820180518482526020830160208501208183528095505050505050600091509050806000018054600181600116156101000203166002900480601f016020809104026020016040519081016040528092919081815260200182805460018160011615610100020316600290048015610dfa5780601f10610dcf57610100808354040283529160200191610dfa565b820191906000526020600020905b815481529060010190602001808311610ddd57829003601f168201915b505050505090806001018054600181600116156101000203166002900480601f016020809104026020016040519081016040528092919081815260200182805460018160011615610100020316600290048015610e985780601f10610e6d57610100808354040283529160200191610e98565b820191906000526020600020905b815481529060010190602001808311610e7b57829003601f168201915b505050505090806002018054600181600116156101000203166002900480601f016020809104026020016040519081016040528092919081815260200182805460018160011615610100020316600290048015610f365780601f10610f0b57610100808354040283529160200191610f36565b820191906000526020600020905b815481529060010190602001808311610f1957829003601f168201915b5050505050905083565b60608060606001846040518082805190602001908083835b60208310610f7b5780518252602082019150602081019050602083039250610f58565b6001836020036101000a03801982511681845116808217855250505050505090500191505090815260200160405180910390206000016001856040518082805190602001908083835b60208310610fe75780518252602082019150602081019050602083039250610fc4565b6001836020036101000a03801982511681845116808217855250505050505090500191505090815260200160405180910390206001016001866040518082805190602001908083835b602083106110535780518252602082019150602081019050602083039250611030565b6001836020036101000a0380198251168184511680821785525050505050509050019150509081526020016040518091039020600201828054600181600116156101000203166002900480601f01602080910402602001604051908101604052809291908181526020018280546001816001161561010002031660029004801561111e5780601f106110f35761010080835404028352916020019161111e565b820191906000526020600020905b81548152906001019060200180831161110157829003601f168201915b50505050509250818054600181600116156101000203166002900480601f0160208091040260200160405190810160405280929190818152602001828054600181600116156101000203166002900480156111ba5780601f1061118f576101008083540402835291602001916111ba565b820191906000526020600020905b81548152906001019060200180831161119d57829003601f168201915b50505050509150808054600181600116156101000203166002900480601f0160208091040260200160405190810160405280929190818152602001828054600181600116156101000203166002900480156112565780601f1061122b57610100808354040283529160200191611256565b820191906000526020600020905b81548152906001019060200180831161123957829003601f168201915b505050505090509250925092509193909250565b60606040518060600160405280858152602001848152602001838152506000856040518082805190602001908083835b602083106112bd578051825260208201915060208101905060208303925061129a565b6001836020036101000a0380198251168184511680821785525050505050509050019150509081526020016040518091039020600082015181600001908051906020019061130c929190611a56565b506020820151816001019080519060200190611329929190611a56565b506040820151816002019080519060200190611346929190611a56565b509050506000846040518082805190602001908083835b60208310611380578051825260208201915060208101905060208303925061135d565b6001836020036101000a03801982511681845116808217855250505050505090500191505090815260200160405180910390206000018054600181600116156101000203166002900480601f01602080910402602001604051908101604052809291908181526020018280546001816001161561010002031660029004801561144a5780601f1061141f5761010080835404028352916020019161144a565b820191906000526020600020905b81548152906001019060200180831161142d57829003601f168201915b505050505090509392505050565b6040518060600160405280858152602001848152602001838152506001826040518082805190602001908083835b602083106114a95780518252602082019150602081019050602083039250611486565b6001836020036101000a038019825116818451168082178552505050505050905001915050908152602001604051809103902060008201518160000190805190602001906114f8929190611a56565b506020820151816001019080519060200190611515929190611a56565b506040820151816002019080519060200190611532929190611a56565b509050507f434901c710027b8da71e0b743d3210260c32d1f6d1503a1dc92addf6396a442d6040518080602001828103825260208152602001807f42616e6b2044657461696c73204164646564205375636365737366756c6c792e81525060200191505060405180910390a150505050565b60606000836040518082805190602001908083835b602083106115dc57805182526020820191506020810190506020830392506115b9565b6001836020036101000a038019825116818451168082178552505050505050905001915050908152602001604051809103902060010160405160200180828054600181600116156101000203166002900480156116705780601f1061164e576101008083540402835291820191611670565b820191906000526020600020905b81548152906001019060200180831161165c575b505091505060405160208183030381529060405280519060200120826040516020018082805190602001908083835b602083106116c2578051825260208201915060208101905060208303925061169f565b6001836020036101000a03801982511681845116808217855250505050505090500191505060405160208183030381529060405280519060200120141561180f576000836040518082805190602001908083835b602083106117395780518252602082019150602081019050602083039250611716565b6001836020036101000a03801982511681845116808217855250505050505090500191505090815260200160405180910390206002018054600181600116156101000203166002900480601f0160208091040260200160405190810160405280929190818152602001828054600181600116156101000203166002900480156118035780601f106117d857610100808354040283529160200191611803565b820191906000526020600020905b8154815290600101906020018083116117e657829003601f168201915b50505050509050611848565b6040518060400160405280601381526020017f696e76616c69642063726564656e7469616c730000000000000000000000000081525090505b92915050565b600181805160208101820180518482526020830160208501208183528095505050505050600091509050806000018054600181600116156101000203166002900480601f0160208091040260200160405190810160405280929190818152602001828054600181600116156101000203166002900480156119105780601f106118e557610100808354040283529160200191611910565b820191906000526020600020905b8154815290600101906020018083116118f357829003601f168201915b505050505090806001018054600181600116156101000203166002900480601f0160208091040260200160405190810160405280929190818152602001828054600181600116156101000203166002900480156119ae5780601f10611983576101008083540402835291602001916119ae565b820191906000526020600020905b81548152906001019060200180831161199157829003601f168201915b505050505090806002018054600181600116156101000203166002900480601f016020809104026020016040519081016040528092919081815260200182805460018160011615610100020316600290048015611a4c5780601f10611a2157610100808354040283529160200191611a4c565b820191906000526020600020905b815481529060010190602001808311611a2f57829003601f168201915b5050505050905083565b828054600181600116156101000203166002900490600052602060002090601f016020900481019282601f10611a9757805160ff1916838001178555611ac5565b82800160010185558215611ac5579182015b82811115611ac4578251825591602001919060010190611aa9565b5b509050611ad29190611ad6565b5090565b611af891905b80821115611af4576000816000905550600101611adc565b5090565b9056fea265627a7a723158200acfd6356711152ce4bfef72e02d60971882034f856f0eaa0650480d79e69fe064736f6c63430005100032",
  "source": "// SPDX-License-Identifier: MIT\npragma solidity >=0.4.22 <0.9.0;\n\ncontract Users {\n    struct _Users {\n        string username;\n        string password;\n        string uid;\n    }\n\n    struct AccountDetails {\n        string bankname;\n        string accountnum;\n        string accountname;\n    }\n\n    mapping(string => _Users) public userrecord;\n    mapping(string => AccountDetails) public Accounts;\n\n    event bankDetCreated(string message);\n    event bankDetails(\n        string accountname,\n        string accountnumber,\n        string bankname\n    );\n\n    constructor() public {}\n\n    function createAccount(\n        string memory username,\n        string memory password,\n        string memory unqid\n    ) public returns (string memory) {\n        userrecord[username] = _Users(username, password, unqid);\n        return userrecord[username].username;\n    }\n\n    function Fetch(string memory username, string memory password)\n        public\n        view\n        returns (string memory)\n    {\n        if (\n            keccak256(abi.encodePacked(password)) ==\n            keccak256(abi.encodePacked(userrecord[username].password))\n        ) {\n            return userrecord[username].uid;\n        } else {\n            return \"invalid credentials\";\n        }\n    }\n\n    function createBankAccount(\n        string memory bankname,\n        string memory accountnum,\n        string memory accountname,\n        string memory userid\n    ) public {\n        Accounts[userid] = AccountDetails(bankname, accountnum, accountname);\n        emit bankDetCreated(\"Bank Details Added Successfully.\");\n    }\n\n    function fetchBankDetail(string memory userid)\n        public\n        view\n        returns (\n            string memory,\n            string memory,\n            string memory\n        )\n    {\n        return (\n            Accounts[userid].bankname,\n            Accounts[userid].accountnum,\n            Accounts[userid].accountname\n        );\n    }\n}\n",
  "sourcePath": "/Users/user/Desktop/test/my-assessment/truf/contracts/Users.sol",
  "compiler": {
    "name": "solc",
    "version": "0.5.16+commit.9c3226ce.Emscripten.clang"
  },
  "schemaVersion": "3.4.3",
  "updatedAt": "2021-09-22T17:35:46.954Z",
  "networkType": "ethereum",
  "devdoc": {
    "methods": {}
  },
  "userdoc": {
    "methods": {}
  }
}